{
  "contractName": "TodoList",
  "abi": [
    {
      "inputs": [],
      "payable": false,
      "stateMutability": "nonpayable",
      "type": "constructor"
    },
    {
      "anonymous": false,
      "inputs": [
        {
          "indexed": false,
          "internalType": "uint256",
          "name": "id",
          "type": "uint256"
        },
        {
          "indexed": false,
          "internalType": "string",
          "name": "name",
          "type": "string"
        },
        {
          "indexed": false,
          "internalType": "string",
          "name": "father",
          "type": "string"
        },
        {
          "indexed": false,
          "internalType": "string",
          "name": "bloodg",
          "type": "string"
        },
        {
          "indexed": false,
          "internalType": "uint256",
          "name": "age",
          "type": "uint256"
        },
        {
          "indexed": false,
          "internalType": "uint256",
          "name": "weight",
          "type": "uint256"
        },
        {
          "indexed": false,
          "internalType": "uint256",
          "name": "height",
          "type": "uint256"
        },
        {
          "indexed": false,
          "internalType": "uint256",
          "name": "phone",
          "type": "uint256"
        },
        {
          "indexed": false,
          "internalType": "string",
          "name": "gender",
          "type": "string"
        }
      ],
      "name": "TaskCreated",
      "type": "event"
    },
    {
      "anonymous": false,
      "inputs": [
        {
          "indexed": false,
          "internalType": "uint256",
          "name": "id",
          "type": "uint256"
        }
      ],
      "name": "taskaccessed",
      "type": "event"
    },
    {
      "constant": true,
      "inputs": [
        {
          "internalType": "uint256",
          "name": "",
          "type": "uint256"
        }
      ],
      "name": "mid",
      "outputs": [
        {
          "internalType": "uint256",
          "name": "",
          "type": "uint256"
        }
      ],
      "payable": false,
      "stateMutability": "view",
      "type": "function"
    },
    {
      "constant": true,
      "inputs": [
        {
          "internalType": "uint256",
          "name": "",
          "type": "uint256"
        }
      ],
      "name": "otp",
      "outputs": [
        {
          "internalType": "uint256",
          "name": "",
          "type": "uint256"
        }
      ],
      "payable": false,
      "stateMutability": "view",
      "type": "function"
    },
    {
      "constant": true,
      "inputs": [],
      "name": "taskCount",
      "outputs": [
        {
          "internalType": "uint256",
          "name": "",
          "type": "uint256"
        }
      ],
      "payable": false,
      "stateMutability": "view",
      "type": "function"
    },
    {
      "constant": true,
      "inputs": [
        {
          "internalType": "uint256",
          "name": "",
          "type": "uint256"
        }
      ],
      "name": "tasks",
      "outputs": [
        {
          "internalType": "uint256",
          "name": "id",
          "type": "uint256"
        },
        {
          "internalType": "string",
          "name": "name",
          "type": "string"
        },
        {
          "internalType": "string",
          "name": "father",
          "type": "string"
        },
        {
          "internalType": "string",
          "name": "bloodg",
          "type": "string"
        },
        {
          "internalType": "uint256",
          "name": "age",
          "type": "uint256"
        },
        {
          "internalType": "uint256",
          "name": "weight",
          "type": "uint256"
        },
        {
          "internalType": "uint256",
          "name": "height",
          "type": "uint256"
        },
        {
          "internalType": "uint256",
          "name": "phone",
          "type": "uint256"
        },
        {
          "internalType": "string",
          "name": "gender",
          "type": "string"
        }
      ],
      "payable": false,
      "stateMutability": "view",
      "type": "function"
    },
    {
      "constant": false,
      "inputs": [
        {
          "internalType": "uint256",
          "name": "_id",
          "type": "uint256"
        }
      ],
      "name": "retTask",
      "outputs": [],
      "payable": false,
      "stateMutability": "nonpayable",
      "type": "function"
    },
    {
      "constant": false,
      "inputs": [
        {
          "internalType": "uint256",
          "name": "_currotp",
          "type": "uint256"
        }
      ],
      "name": "changeOTP",
      "outputs": [],
      "payable": false,
      "stateMutability": "nonpayable",
      "type": "function"
    },
    {
      "constant": false,
      "inputs": [
        {
          "internalType": "string",
          "name": "_name",
          "type": "string"
        },
        {
          "internalType": "string",
          "name": "_father",
          "type": "string"
        },
        {
          "internalType": "string",
          "name": "_bloodg",
          "type": "string"
        },
        {
          "internalType": "uint256",
          "name": "_age",
          "type": "uint256"
        },
        {
          "internalType": "uint256",
          "name": "_weight",
          "type": "uint256"
        },
        {
          "internalType": "uint256",
          "name": "_height",
          "type": "uint256"
        },
        {
          "internalType": "uint256",
          "name": "_phone",
          "type": "uint256"
        },
        {
          "internalType": "string",
          "name": "_gender",
          "type": "string"
        }
      ],
      "name": "createTask",
      "outputs": [],
      "payable": false,
      "stateMutability": "nonpayable",
      "type": "function"
    }
  ],
  "bytecode": "0x60806040526000805560006001553480156200001a57600080fd5b50620000a7604051806040016040528060028152602001614d6560f01b815250604051806040016040528060068152602001652330ba3432b960d11b8152506040518060400160405280600381526020016241422b60e81b815250600c6019606464024ce300c7604051806040016040528060018152602001604d60f81b815250620000ad60201b60201c565b62000507565b600080546001018155620000cb60646001600160e01b036200040e16565b90506000620000e56127106001600160e01b036200040e16565b600081815260046020908152604080832086905587835260038252808320849055805161012081018252835481528083018f81528183018f9052606082018e9052608082018d905260a082018c905260c082018b905260e082018a9052610100820189905287855260028452919093208351815590518051949550929390926200017792600185019291019062000462565b50604082015180516200019591600284019160209091019062000462565b5060608201518051620001b391600384019160209091019062000462565b506080820151600482015560a0820151600582015560c0820151600682015560e082015160078201556101008201518051620001fa91600884019160209091019062000462565b509050507f86bad42c4997c749981ddb2e2ca655c3603acae44b161e409915606d6b695dd96000548b8b8b8b8b8b8b8b604051808a81526020018060200180602001806020018981526020018881526020018781526020018681526020018060200185810385528d818151815260200191508051906020019080838360005b838110156200029357818101518382015260200162000279565b50505050905090810190601f168015620002c15780820380516001836020036101000a031916815260200191505b5085810384528c5181528c516020918201918e019080838360005b83811015620002f6578181015183820152602001620002dc565b50505050905090810190601f168015620003245780820380516001836020036101000a031916815260200191505b5085810383528b5181528b516020918201918d019080838360005b83811015620003595781810151838201526020016200033f565b50505050905090810190601f168015620003875780820380516001836020036101000a031916815260200191505b50858103825286518152865160209182019188019080838360005b83811015620003bc578181015183820152602001620003a2565b50505050905090810190601f168015620003ea5780820380516001836020036101000a031916815260200191505b509d505050505050505050505050505060405180910390a150505050505050505050565b6001805481019081905560408051426020808301919091523360601b8284015260548083019490945282518083039094018452607490910190915281519101206000908290816200045b57fe5b0692915050565b828054600181600116156101000203166002900490600052602060002090601f016020900481019282601f10620004a557805160ff1916838001178555620004d5565b82800160010185558215620004d5579182015b82811115620004d5578251825591602001919060010190620004b8565b50620004e3929150620004e7565b5090565b6200050491905b80821115620004e35760008155600101620004ee565b90565b610fd780620005176000396000f3fe608060405234801561001057600080fd5b506004361061007d5760003560e01c80638d9776721161005b5780638d9776721461030a578063b6cb58a5146104f4578063d043c0b01461050e578063ddf6c06d1461052b5761007d565b80630f0de80314610082578063399f6563146100a15780637af05882146102ed575b600080fd5b61009f6004803603602081101561009857600080fd5b5035610548565b005b61009f60048036036101008110156100b857600080fd5b810190602081018135600160201b8111156100d257600080fd5b8201836020820111156100e457600080fd5b803590602001918460018302840111600160201b8311171561010557600080fd5b91908080601f0160208091040260200160405190810160405280939291908181526020018383808284376000920191909152509295949360208101935035915050600160201b81111561015757600080fd5b82018360208201111561016957600080fd5b803590602001918460018302840111600160201b8311171561018a57600080fd5b91908080601f0160208091040260200160405190810160405280939291908181526020018383808284376000920191909152509295949360208101935035915050600160201b8111156101dc57600080fd5b8201836020820111156101ee57600080fd5b803590602001918460018302840111600160201b8311171561020f57600080fd5b91908080601f016020809104026020016040519081016040528093929190818152602001838380828437600092019190915250929584359560208601359560408101359550606081013594509192509060a081019060800135600160201b81111561027957600080fd5b82018360208201111561028b57600080fd5b803590602001918460018302840111600160201b831117156102ac57600080fd5b91908080601f016020809104026020016040519081016040528093929190818152602001838380828437600092019190915250929550610854945050505050565b61009f6004803603602081101561030357600080fd5b5035610b8b565b6103276004803603602081101561032057600080fd5b5035610bc1565b604051808a81526020018060200180602001806020018981526020018881526020018781526020018681526020018060200185810385528d818151815260200191508051906020019080838360005b8381101561038e578181015183820152602001610376565b50505050905090810190601f1680156103bb5780820380516001836020036101000a031916815260200191505b5085810384528c5181528c516020918201918e019080838360005b838110156103ee5781810151838201526020016103d6565b50505050905090810190601f16801561041b5780820380516001836020036101000a031916815260200191505b5085810383528b5181528b516020918201918d019080838360005b8381101561044e578181015183820152602001610436565b50505050905090810190601f16801561047b5780820380516001836020036101000a031916815260200191505b50858103825286518152865160209182019188019080838360005b838110156104ae578181015183820152602001610496565b50505050905090810190601f1680156104db5780820380516001836020036101000a031916815260200191505b509d505050505050505050505050505060405180910390f35b6104fc610e3e565b60408051918252519081900360200190f35b6104fc6004803603602081101561052457600080fd5b5035610e44565b6104fc6004803603602081101561054157600080fd5b5035610e56565b6000610555612710610e68565b600083815260046020526040808220805490839055838352912081905590915061057d610ebb565b600260008381526020019081526020016000206040518061012001604052908160008201548152602001600182018054600181600116156101000203166002900480601f01602080910402602001604051908101604052809291908181526020018280546001816001161561010002031660029004801561063f5780601f106106145761010080835404028352916020019161063f565b820191906000526020600020905b81548152906001019060200180831161062257829003601f168201915b5050509183525050600282810180546040805160206001841615610100026000190190931694909404601f810183900483028501830190915280845293810193908301828280156106d15780601f106106a6576101008083540402835291602001916106d1565b820191906000526020600020905b8154815290600101906020018083116106b457829003601f168201915b505050918352505060038201805460408051602060026001851615610100026000190190941693909304601f81018490048402820184019092528181529382019392918301828280156107655780601f1061073a57610100808354040283529160200191610765565b820191906000526020600020905b81548152906001019060200180831161074857829003601f168201915b5050505050815260200160048201548152602001600582015481526020016006820154815260200160078201548152602001600882018054600181600116156101000203166002900480601f01602080910402602001604051908101604052809291908181526020018280546001816001161561010002031660029004801561082f5780601f106108045761010080835404028352916020019161082f565b820191906000526020600020905b81548152906001019060200180831161081257829003601f168201915b5050509190925250505060e00151600090815260036020526040902092909255505050565b6000805460010181556108676064610e68565b90506000610876612710610e68565b600081815260046020908152604080832086905587835260038252808320849055805161012081018252835481528083018f81528183018f9052606082018e9052608082018d905260a082018c905260c082018b905260e082018a905261010082018990528785526002845291909320835181559051805194955092939092610906926001850192910190610f07565b5060408201518051610922916002840191602090910190610f07565b506060820151805161093e916003840191602090910190610f07565b506080820151600482015560a0820151600582015560c0820151600682015560e082015160078201556101008201518051610983916008840191602090910190610f07565b509050507f86bad42c4997c749981ddb2e2ca655c3603acae44b161e409915606d6b695dd96000548b8b8b8b8b8b8b8b604051808a81526020018060200180602001806020018981526020018881526020018781526020018681526020018060200185810385528d818151815260200191508051906020019080838360005b83811015610a1a578181015183820152602001610a02565b50505050905090810190601f168015610a475780820380516001836020036101000a031916815260200191505b5085810384528c5181528c516020918201918e019080838360005b83811015610a7a578181015183820152602001610a62565b50505050905090810190601f168015610aa75780820380516001836020036101000a031916815260200191505b5085810383528b5181528b516020918201918d019080838360005b83811015610ada578181015183820152602001610ac2565b50505050905090810190601f168015610b075780820380516001836020036101000a031916815260200191505b50858103825286518152865160209182019188019080838360005b83811015610b3a578181015183820152602001610b22565b50505050905090810190601f168015610b675780820380516001836020036101000a031916815260200191505b509d505050505050505050505050505060405180910390a150505050505050505050565b6040805182815290517fa3d0557b93e32bb93197fd3e591ae203888bacbc0fd0e931126336b5ec522d219181900360200190a150565b60026020818152600092835260409283902080546001808301805487519281161561010002600019011695909504601f8101859004850282018501909652858152909491939092909190830182828015610c5c5780601f10610c3157610100808354040283529160200191610c5c565b820191906000526020600020905b815481529060010190602001808311610c3f57829003601f168201915b50505060028085018054604080516020601f6000196101006001871615020190941695909504928301859004850281018501909152818152959695945090925090830182828015610cee5780601f10610cc357610100808354040283529160200191610cee565b820191906000526020600020905b815481529060010190602001808311610cd157829003601f168201915b5050505060038301805460408051602060026001851615610100026000190190941693909304601f8101849004840282018401909252818152949594935090830182828015610d7e5780601f10610d5357610100808354040283529160200191610d7e565b820191906000526020600020905b815481529060010190602001808311610d6157829003601f168201915b505050505090806004015490806005015490806006015490806007015490806008018054600181600116156101000203166002900480601f016020809104026020016040519081016040528092919081815260200182805460018160011615610100020316600290048015610e345780601f10610e0957610100808354040283529160200191610e34565b820191906000526020600020905b815481529060010190602001808311610e1757829003601f168201915b5050505050905089565b60005481565b60046020526000908152604090205481565b60036020526000908152604090205481565b6001805481019081905560408051426020808301919091523360601b828401526054808301949094528251808303909401845260749091019091528151910120600090829081610eb457fe5b0692915050565b6040518061012001604052806000815260200160608152602001606081526020016060815260200160008152602001600081526020016000815260200160008152602001606081525090565b828054600181600116156101000203166002900490600052602060002090601f016020900481019282601f10610f4857805160ff1916838001178555610f75565b82800160010185558215610f75579182015b82811115610f75578251825591602001919060010190610f5a565b50610f81929150610f85565b5090565b610f9f91905b80821115610f815760008155600101610f8b565b9056fea265627a7a72315820432bf8d2dd182a9614adfdf85e1fced935e618951a17b8ef6de5814e95fb36c164736f6c63430005100032",
  "source": "pragma solidity ^0.5.0;\n\ncontract TodoList {\n  uint public taskCount = 0;\n\n  //Random Number generator\n  uint randNonce = 0;\n  function randMod(uint _modulus) internal returns(uint)\n  {\n    // increase nonce\n    randNonce++; \n    return uint(keccak256(abi.encodePacked(now,\n                                            msg.sender,\n                                            randNonce))) % _modulus;\n  }\n\n  struct Task {\n    uint id;\n\n    string name;\n    string father;\n    \n    string bloodg;\n   \n    uint age;\n    uint weight;\n    uint height;\n    uint phone;\n\n    string gender;\n    // bool completed;\n    \n  }\n\n  mapping(uint => Task) public tasks;\n  mapping(uint => uint) public otp;\n  mapping(uint => uint) public mid;\n\n  event TaskCreated(\n    uint id,\n    \n    string name,\n    string father,\n    string bloodg,\n\n    uint age,\n    uint weight,\n    uint height,\n    uint phone,\n\n    string gender\n    \n  );\n\n  // event TaskCompleted(\n  //   uint id,\n  //   bool completed\n  // );\n\n  event taskaccessed(\n    uint id\n  );\n\n  constructor() public {\n    createTask(\"Me\",\"Father\",\"AB+\",12,25,100,9879879879,\"M\");\n  }\n\n  function retTask(uint _id) public {\n    emit taskaccessed(_id);\n  }\n\n  function changeOTP(uint _currotp) public{\n    \n    uint newotp = randMod(10000);\n    uint keyval = mid[_currotp];\n    mid[_currotp] = 0;\n    mid[newotp] = keyval;\n    \n    Task memory t = tasks[keyval];\n    uint _phonenumber = t.phone;\n    otp[_phonenumber] = newotp;\n  }\n\n  function createTask(string memory _name, \n                      string memory _father,\n                      string memory _bloodg,\n                      uint _age,\n                      uint _weight,\n                      uint _height,\n                      uint _phone,\n                      string memory _gender\n                      ) public {\n\n    taskCount ++;\n    uint key = randMod(100);\n    uint otp2 = randMod(10000);\n    mid[otp2] = key;\n    otp[_phone] = otp2;\n    tasks[key] = Task(taskCount, _name, _father,  _bloodg, _age, _weight, _height, _phone, _gender);\n    emit TaskCreated(taskCount, _name, _father,  _bloodg, _age, _weight, _height, _phone, _gender);\n  }\n\n  // function toggleCompleted(uint _id) public {\n  //   Task memory _task = tasks[_id];\n  //   _task.completed = !_task.completed;\n  //   tasks[_id] = _task;\n  //   emit TaskCompleted(_id, _task.completed);\n  // }\n}",
  "sourcePath": "D:\\Minor 2\\HackStack22-master\\contracts\\TodoList.sol",
  "compiler": {
    "name": "solc",
    "version": "0.5.16+commit.9c3226ce.Emscripten.clang"
  },
  "schemaVersion": "3.4.16",
  "updatedAt": "2024-04-18T09:12:26.788Z",
  "networkType": "ethereum",
  "devdoc": {
    "methods": {}
  },
  "userdoc": {
    "methods": {}
  }
}